S01A00004D696B726F6C797372656B6C616D656E31372E73726563F9
S11300000C94FE000C9408010C9408010C94080153
S11300100C9408010C9408010C9408010C94080138
S11300200C9408010C9408010C9408010C94080128
S11300300C9408010C9408010C9408010C94080118
S11300400C9408010C9408010C9408010C94080108
S11300500C9408010C9408010C9408010C940801F8
S11300600C9408010C9408010C9408010C940801E8
S11300700C9408010C9408010C9408010C940801D8
S11300800C9408010C9408010C9408010C940801C8
S11300900C9408010C9408010C9408010C940801B8
S11300A00C9408010C9408010C9408010C940801A8
S11300B00C9408010C9408010C9408010C94080198
S11300C00C9408010C9408010C9408010C94080188
S11300D00C9408010C9408010C9408010C94080178
S11300E00C9408010C9408010C9408010C94080168
S11300F00C9408010C9408010C9408010C94080158
S11301000C9408010C9408010C9408010C94080147
S11301100C9408010C9408010C9408010C94080137
S11301200C9408010C9408010C9408010C94080127
S11301300C9408010C9408010C9408010C94080117
S11301400C9408010C9408010C9408010C94080107
S11301500C9408010C9408010C9408010C940801F7
S11301600C9408010C9408010C9408010C940801E7
S11301700C9408010C9408010C9408010C940801D7
S11301800C9408010C9408010C9408010C940801C7
S11301900C9408010C9408010C9408010C940801B7
S11301A00C9408010C9408010C9408010C940801A7
S11301B00C9408010C9408010C9408010C94080197
S11301C00C9408010C9408010C9408010C94080187
S11301D00C9408010C9408010C9408010C94080177
S11301E00C9408010C9408010C9408010C94080167
S11301F00C9408010C9408010C94080111241FBEEE
S1130200CFEFCDBFDFE2DEBF0E94DC010C94190208
S11302100C940000E0E6F6E080EA808314820895FE
S1130220982F991F9927991F9295990F907EE0E630
S1130230F6E0948394819068948394819F77948367
S113024086FB992790F99295990F907E94839481D7
S11302509068948394819F779483982F9072948369
S113026094819068948394819F77948384FB9927E5
S113027090F99295990F907E9483948190689483D9
S113028094819F77948383FB992790F99295990F92
S1130290907E948394819068948394819F779483CF
S11302A082FB992790F99295990F907E948394817B
S11302B09068948394819F77948381FB992790F924
S11302C09295990F907E94839481906894839481FD
S11302D09F77948381708295880F807E8483848144
S11302E08068848384818F778483089580E00E946A
S11302F0100180E00E94100180E00E94100180E063
S11303000E94100108950F931F93CF9390E00E96CF
S11303108C0112F4015F1F4F1595079515950795EC
S113032015950795159507951016110654F4C0E018
S113033080E00E941001CF5F8C2F90E0801791071E
S1130340BCF3CF911F910F910895FF920F931F93C8
S1130350CF93DF938C01F62E0E947601E8010A50B8
S11303601F4F8F2D806EF82E8F2D0E9410018881D3
S11303700E94100189810E9410018A810E9410014B
S11303802396C017D10781F782E50E948301DF918C
S1130390CF911F910F91FF900895FC018A509F4FB8
S11303A060836183628333968E179F07C9F708952C
S11303B060E00E94CD010895CF93DF93CDB7DEB7FF
S11303C0C65FD109CDBFDEBF0E940A01CE010196EE
S11303D00E94D80161E0CE0101960E94A5016E0140
S11303E024E0C20ED11C10E4CE0101967C019FE3EF
S11303F02DE083E0915020408040E1F700C00000F0
S1130400CE0101960E94D801C7018A509F4FF7017F
S113041010833396E817F907D9F761E0CE01019606
S11304200E94A5019FEFE91AF90ACE14DF04F9F638
S1090430DBCFF894FFCFBE
S9030000FC
