S01A00004D696B726F6C797372656B6C616D656E31372E73726563F9
S11300000C94FE000C941D010C941D010C941D0114
S11300100C941D010C941D010C941D010C941D01E4
S11300200C941D010C941D010C941D010C941D01D4
S11300300C941D010C941D010C941D010C941D01C4
S11300400C941D010C941D010C941D010C941D01B4
S11300500C941D010C941D010C941D010C941D01A4
S11300600C941D010C941D010C941D010C941D0194
S11300700C941D010C941D010C941D010C941D0184
S11300800C941D010C941D010C941D010C941D0174
S11300900C941D010C941D010C941D010C941D0164
S11300A00C941D010C941D010C941D010C941D0154
S11300B00C941D010C941D010C941D010C941D0144
S11300C00C941D010C941D010C941D010C941D0134
S11300D00C941D010C941D010C941D010C941D0124
S11300E00C941D010C941D010C941D010C941D0114
S11300F00C941D010C941D010C941D010C941D0104
S11301000C941D010C941D010C941D010C941D01F3
S11301100C941D010C941D010C941D010C941D01E3
S11301200C941D010C941D010C941D010C941D01D3
S11301300C941D010C941D010C941D010C941D01C3
S11301400C941D010C941D010C941D010C941D01B3
S11301500C941D010C941D010C941D010C941D01A3
S11301600C941D010C941D010C941D010C941D0193
S11301700C941D010C941D010C941D010C941D0183
S11301800C941D010C941D010C941D010C941D0173
S11301900C941D010C941D010C941D010C941D0163
S11301A00C941D010C941D010C941D010C941D0153
S11301B00C941D010C941D010C941D010C941D0143
S11301C00C941D010C941D010C941D010C941D0133
S11301D00C941D010C941D010C941D010C941D0123
S11301E00C941D010C941D010C941D010C941D0113
S11301F00C941D010C941D010C941D0111241FBEAF
S1130200CFEFCDBFDFE2DEBF10E2A0E0B0E2E0E47A
S1130210FDE000E00BBF02C007900D92A03DB107C6
S1130220D9F720E3A0EDB0E201C01D92A333B207D9
S1130230E1F70E9457040C949E060C940000E0E63B
S1130240F6E080EA808314820895982F991F9927F5
S1130250991F9295990F907EE0E6F6E0948394813D
S11302609068948394819F77948386FB992790F96F
S11302709295990F907E948394819068948394814D
S11302809F779483982F9072948394819068948339
S113029094819F77948384FB992790F99295990F81
S11302A0907E948394819068948394819F779483BF
S11302B083FB992790F99295990F907E948394816A
S11302C09068948394819F77948382FB992790F913
S11302D09295990F907E94839481906894839481ED
S11302E09F77948381FB992790F99295990F907E3B
S11302F0948394819068948394819F77948381708C
S11303008295880F807E848384818068848384813D
S11303108F778483089580E00E94250180E00E9405
S1130320250180E00E94250180E00E9425010895B6
S11303300F931F93CF9390E00E968C0112F4015FFC
S11303401F4F1595079515950795159507951595BF
S113035007951016110654F4C0E080E00E942501B0
S1130360CF5F8C2F90E080179107BCF3CF911F9142
S11303700F910895DF92EF92FF920F931F93CF9303
S1130380DF93E82EC62F0E948B0100E010E0C06EC0
S1130390DC2E86EFE89E700111248D2D0E9425012C
S11303A0E801CC0FDD1FC00FD11FCE0DDF1DCF52D2
S11303B0DF4D8A810E94250189810E94250188815F
S11303C00E9425010F5F1F4F0235110531F782E5A9
S11303D00E949801DF91CF911F910F91FF90EF90B0
S11303E0DF900895CF93DF9361E070E080E090E0C8
S11303F00E94BA01C1E0D0E08FE39CE90197F1F7D4
S113040000C0000061E070E0CE010E94BA012196B4
S1130410C031D10589F7DF91CF910895EF92FF9212
S11304200F931F93CF93DF938823F9F0EE24EA947C
S1130430E80EF12C9FEFE91AF90AC0E0D0E0082F8A
S113044010E00150110961E070E0CE010E94BA0190
S1130450C017D10731F08FE39CE90197F1F700C091
S113046000002196CE15DF0571F7DF91CF911F9122
S11304700F91FF90EF900895E0913130F091323078
S11304809081890F80830895E0913130F09132306A
S113049080818F5F80830895DB0120E030E096EF58
S11304A0899FA00111249C91F901EE0FFF1FE20F17
S11304B0F31FE40FF51FEF52FF4D908311969C91AB
S11304C01197918312969C91129792832F5F3F4FBD
S11304D02235310541F708950F931F93CF938C0173
S11304E0C0E0B8018C2F0E944C02CF5FC031C9F725
S11304F0CF911F910F910895CF93DF931F92CDB7A2
S1130500DEB78983A0913130B09132305C9189811A
S113051090E0FC01EE0FFF1FE80FF91F36EF359F47
S1130520E00DF11D1124EF52FF4D60835C91898130
S113053090E0FC01EE0FFF1FE80FF91F359FE00D5F
S1130540F11D1124EF52FF4D41834C91898190E0BC
S1130550FC01EE0FFF1FE80FF91F349FE00DF11DA2
S11305601124EF52FF4D22830F90DF91CF91089514
S1130570BF92CF92DF92EF92FF920F931F93CF938C
S1130580DF9300D01F92CDB7DEB7F82E9B01E09128
S11305903130F0913230B080608190E0DC01AA0FFC
S11305A0BB1F8A0F9B1F56EFDC01569FA00DB11D88
S11305B01124AF52BF4D1296EC906081DC01569F1E
S11305C0A00DB11D1124AF52BF4D1196DC90608176
S11305D0569F800D911D1124FC01EF52FF4DC080E8
S11305E0F9018081E81648F490E08E199109642F8E
S11305F070E00E94B905698301C01982F901818103
S1130600D81648F490E08D199109642F70E00E9487
S1130610B9056A8301C01A82F9018281C81648F4B7
S113062090E08C199109642F70E00E94B9056B83E6
S113063001C01B824423D1F0042F11E099813A8137
S11306402B81FC2D219FF00D11242F2F4D2D319F37
S1130650400D11246E2D919F600D11248F2D0E9449
S11306607C020E9444021F5F011740F7E091313081
S1130670F0913230B0822396CDBFDEBFDF91CF91AF
S11306801F910F91FF90EF90DF90CF90BF9008954E
S11306902F923F924F925F926F927F928F929F928E
S11306A0AF92BF92CF92DF92EF92FF920F931F937C
S11306B0CF93DF93CDB7DEB72697CDBFDEBFFC0166
S11306C01B01842F622F0E94AD05908181113DC0D2
S11306D056C0E12C0E942C066C817D810E94B905D4
S11306E08F5FF501E80FF11D70800E942C06B801A0
S11306F00E94B905F816E0F10E942C06B8010E9488
S1130700B905F816C8F734C04191429FC001439F10
S1130710900D1124B8010E94B905D4016D934D01C7
S1130720EC15FD0589F7452DBE016F5F7F4F872DC1
S11307300E94B802E3946E10CDCF852D0E943C0236
S11307404394BE81B41111C01AC08E83FE2C602E56
S1130750522E5F01412C292F30E02C833D830FEF73
S113076010E0610133E0C30ED11C6110B2CFE5CFBC
S1130770F101DE0111964D01282F30E0C5CF2696F8
S1130780CDBFDEBFDF91CF911F910F91FF90EF900E
S1130790DF90CF90BF90AF909F908F907F906F909D
S11307A05F904F903F902F9008956F927F928F9219
S11307B09F92AF92BF92CF92DF92EF92FF920F93EC
S11307C01F93CF93DF93DC012C91222309F450C0B3
S11307D0642EC72ED62E7C01215030E02F5F3F4F70
S11307E04C01820E931E0FEF040F10E00F5F1F4F9A
S11307F00F2EF6EFBF2EF02DE0913130F091323014
S11308007080662051F1C0E0D0E01DC0D701119680
S11308108C9190E0A190AC01440F551FDA01A80F10
S1130820B91FA60FB71FAF52BF4DA20FB31FAC9293
S11308302F5F3F4F2330310549F70E944402219630
S1130840C017D10751F0ED2DFC2D20E030E0BC9E07
S1130850B001BD9E700D1124D9CFE0913130F091DB
S113086032307082BFEFEB1AFB0AE814F90421F668
S1130870DF91CF911F910F91FF90EF90DF90CF9078
S1130880BF90AF909F908F907F906F900895E0EC11
S1130890F1E08485886084878EE390E00E943006CE
S11308A080ED90E2809331309093323008950E942D
S11308B047040E941F010E949B040E945D050E9440
S11308C06204F9CFEF920F931F93CF93DF93CDB7C9
S11308D0DEB72697CDBFDEBF89E389838FEF8A8396
S11308E084E18B831C8296E49D838E8315E0CE0184
S11308F004960E946C020F2EF0E3EF2EF02D0EE111
S113090022E040E1BE016F5F7F4F8DE790E20E94DD
S11309104803E0913130F091323010820E94F201AC
S1130920115029F72696CDBFDEBFDF91CF911F91DD
S11309300F91EF900895CF93DF93CDB7DEB726974D
S1130940CDBFDEBF88EC89831A821B821C821D8284
S11309501E8248E0BE016F5F7F4F80E790E20E94F5
S1130960D50388E00E940E0248E0BE016C5F7F4F11
S113097080E790E20E94D50348E0BE016F5F7F4F9D
S113098088E690E20E94D50388E00E940E0248E0C7
S1130990BE016C5F7F4F88E690E20E94D50348E079
S11309A0BE016F5F7F4F85E690E20E94D50388E029
S11309B00E940E0248E0BE016C5F7F4F85E690E224
S11309C00E94D50348E0BE016F5F7F4F86E590E249
S11309D00E94D50388E00E940E0248E0BE016C5FCD
S11309E07F4F86E590E20E94D50348E0BE016F5F29
S11309F07F4F8BE490E20E94D50388E00E940E02B0
S1130A0048E0BE016C5F7F4F8BE490E20E94D50307
S1130A1048E0BE016F5F7F4F88E490E20E94D503F7
S1130A2088E00E940E0248E0BE016C5F7F4F88E4BC
S1130A3090E20E94D50348E0BE016F5F7F4F89E3D7
S1130A4090E20E94D50388E00E940E0248E0BE01B5
S1130A506C5F7F4F89E390E20E94D50348E0BE01BA
S1130A606F5F7F4F8EE290E20E94D50388E00E9480
S1130A700E0248E0BE016C5F7F4F8EE290E20E945E
S1130A80D50348E0BE016F5F7F4F82E290E20E948F
S1130A90D50388E00E940E0248E0BE016C5F7F4FE0
S1130AA082E290E20E94D50388E00E940E0226961C
S1130AB0CDBFDEBFDF91CF910895CF93DF93CDB744
S1130AC0DEB72697CDBFDEBF88EC89831A821B82EE
S1130AD01C821D821E8248E0BE016F5F7F4F8AE147
S1130AE090E20E94D50388E00E940E0248E0BE0115
S1130AF06C5F7F4F8AE190E20E94D50348E0BE011B
S1130B006F5F7F4F8FE090E20E94D50388E00E94E0
S1130B100E0248E0BE016C5F7F4F8FE090E20E94BE
S1130B20D50348E0BE016F5F7F4F84E090E20E94EE
S1130B30D50388E00E940E0248E0BE016C5F7F4F3F
S1130B4084E090E20E94D50388E00E940E0226967B
S1130B50CDBFDEBFDF91CF910895991B79E004C02A
S1130B60991F961708F0961B881F7A95C9F78095E8
S1130B70089597FB072E16F4009407D077FD09D04B
S1130B800E94CD0507FC05D03EF4909581959F4FBA
S1130B900895709561957F4F0895AA1BBB1B51E181
S1130BA007C0AA1FBB1FA617B70710F0A61BB70BD9
S1130BB0881F991F5A95A9F780959095BC01CD017E
S1130BC008958F929F92AF92BF92CF92DF92EF924D
S1130BD0FF92CF93DF93EC01688179818A819B81B5
S1130BE0611571058105910521F464E279ED8BE5C8
S1130BF097E02DE133EF41E050E00E943B064901CC
S1130C005A019B01AC01A7EAB1E40E945A066B01A8
S1130C107C01ACEEB4EFA50194010E946806DC01EE
S1130C20CB018C0D9D1DAE1DBF1DB7FF03C00197E9
S1130C30A109B04888839983AA83BB839F77DF91F6
S1130C40CF91FF90EF90DF90CF90BF90AF909F90A7
S1130C508F9008950C94E10580E090E20C94E105F6
S1130C60A0E0B0E08093002090930120A0930220A4
S1130C70B09303200895052E97FB1EF400940E9460
S1130C80520657FD07D00E946D0607FC03D04EF4B0
S1130C900C94520650954095309521953F4F4F4FF7
S1130CA05F4F089590958095709561957F4F8F4F14
S1130CB09F4F08950E948F06A59F900DB49F900D9D
S1130CC0A49F800D911D11240895B7FF0C945A061A
S1130CD00E945A06821B930B0895A1E21A2EAA1BA6
S1130CE0BB1BFD010DC0AA1FBB1FEE1FFF1FA217D8
S1130CF0B307E407F50720F0A21BB30BE40BF50BD5
S1130D00661F771F881F991F1A9469F7609570955D
S1130D10809590959B01AC01BD01CF010895A29FE0
S1130D20B001B39FC001A39F700D811D1124911DBB
S1130D30B29F700D811D1124911D0895F894FFCF69
S1130D40010000000A333435363738393A3B3C0A5F
S1130D50191A1B1C1D1E1F20212207000102030457
S1130D6005060B4748494A4B4C4D4E4F50510A3DDE
S1130D703E3F404142434445460E2F3031323334E6
S1130D8035363738393A3B3C022D2E0A23242526A2
S1130D902728292A2B2C0E15161718191A1B1C1D67
S1130DA01E1F202122021314070C0D0E0F10111206
S1130DB00C000102030405060708090A0B5200018E
S1130DC002030405060708090A0B0C0D0E0F101187
S1130DD012131415161718191A1B1C1D1E1F202177
S1130DE022232425262728292A2B2C2D2E2F303167
S1130DF032333435363738393A3B3C3D3E3F404157
S1130E0042434445464748494A4B4C4D4E4F505146
S9030000FC
