S01A00004D696B726F6C797372656B6C616D656E31372E73726563F9
S11300000C94FE000C941D010C941D010C941D0114
S11300100C941D010C941D010C941D010C941D01E4
S11300200C941D010C941D010C941D010C941D01D4
S11300300C941D010C941D010C941D010C941D01C4
S11300400C941D010C941D010C941D010C941D01B4
S11300500C941D010C941D010C941D010C941D01A4
S11300600C941D010C941D010C941D010C941D0194
S11300700C941D010C941D010C941D010C941D0184
S11300800C941D010C941D010C941D010C941D0174
S11300900C941D010C941D010C941D010C941D0164
S11300A00C941D010C941D010C941D010C941D0154
S11300B00C941D010C941D010C941D010C941D0144
S11300C00C941D010C941D010C941D010C941D0134
S11300D00C941D010C941D010C941D010C941D0124
S11300E00C941D010C941D010C941D010C941D0114
S11300F00C941D010C941D010C941D010C941D0104
S11301000C941D010C941D010C941D010C941D01F3
S11301100C941D010C941D010C941D010C941D01E3
S11301200C941D010C941D010C941D010C941D01D3
S11301300C941D010C941D010C941D010C941D01C3
S11301400C941D010C941D010C941D010C941D01B3
S11301500C941D010C941D010C941D010C941D01A3
S11301600C941D010C941D010C941D010C941D0193
S11301700C941D010C941D010C941D010C941D0183
S11301800C941D010C941D010C941D010C941D0173
S11301900C941D010C941D010C941D010C941D0163
S11301A00C941D010C941D010C941D010C941D0153
S11301B00C941D010C941D010C941D010C941D0143
S11301C00C941D010C941D010C941D010C941D0133
S11301D00C941D010C941D010C941D010C941D0123
S11301E00C941D010C941D010C941D010C941D0113
S11301F00C941D010C941D010C941D0111241FBEAF
S1130200CFEFCDBFDFE2DEBF10E2A0E0B0E2E6EE6A
S1130210F9E000E00BBF02C007900D92A635B107CC
S1130220D9F72FE2A6E5B0E201C01D92A93BB207BF
S1130230E1F70E94BA030C94F1040C940000E0E688
S1130240F6E080EA808314820895982F991F9927F5
S1130250991F9295990F907EE0E6F6E0948394813D
S11302609068948394819F77948386FB992790F96F
S11302709295990F907E948394819068948394814D
S11302809F779483982F9072948394819068948339
S113029094819F77948384FB992790F99295990F81
S11302A0907E948394819068948394819F779483BF
S11302B083FB992790F99295990F907E948394816A
S11302C09068948394819F77948382FB992790F913
S11302D09295990F907E94839481906894839481ED
S11302E09F77948381FB992790F99295990F907E3B
S11302F0948394819068948394819F77948381708C
S11303008295880F807E848384818068848384813D
S11303108F778483089580E00E94250180E00E9405
S1130320250180E00E94250180E00E9425010895B6
S11303300F931F93CF9390E00E968C0112F4015FFC
S11303401F4F1595079515950795159507951595BF
S113035007951016110654F4C0E080E00E942501B0
S1130360CF5F8C2F90E080179107BCF3CF911F9142
S11303700F910895DF92EF92FF920F931F93CF9303
S1130380DF93E82EC62F0E948B0100E010E0C06EC0
S1130390DC2E86EFE89E700111248D2D0E9425012C
S11303A0E801CC0FDD1FC00FD11FCE0DDF1DC95AD0
S11303B0DF4D8A810E94250189810E94250188815F
S11303C00E9425010F5F1F4F0235110531F782E5A9
S11303D00E949801DF91CF911F910F91FF90EF90B0
S11303E0DF900895CF93DF9361E070E080E090E0C8
S11303F00E94BA01C1E0D0E08FE39CE90197F1F7D4
S113040000C0000061E070E0CE010E94BA012196B4
S1130410C031D10589F7DF91CF910895E091B72FCD
S1130420F091B82F9081890F80830895E091B72FC0
S1130430F091B82F80818F5F80830895DB0120E0E5
S113044030E096EF899FA00111249C91F901EE0FF1
S1130450FF1FE20FF31FE40FF51FE95AFF4D9083CE
S113046011969C911197918312969C911297928365
S11304702F5F3F4F2235310541F708950F931F93A6
S1130480CF938C01C0E0B8018C2F0E941E02CF5F75
S1130490C031C9F7CF911F910F910895CF93DF9386
S11304A01F92CDB7DEB78983A091B72FB091B82F33
S11304B05C91898190E0FC01EE0FFF1FE80FF91FAA
S11304C036EF359FE00DF11D1124E95AFF4D60838D
S11304D05C91898190E0FC01EE0FFF1FE80FF91F8A
S11304E0359FE00DF11D1124E95AFF4D41834C91D4
S11304F0898190E0FC01EE0FFF1FE80FF91F349F84
S1130500E00DF11D1124E95AFF4D22830F90DF9174
S1130510CF910895BF92CF92DF92EF92FF920F9303
S11305201F93CF93DF9300D01F92CDB7DEB7F82E81
S11305309B01E091B72FF091B82FB080608190E0DB
S1130540DC01AA0FBB1F8A0F9B1F56EFDC01569FCD
S1130550A00DB11D1124A95ABF4D1296EC906081D3
S1130560DC01569FA00DB11D1124A95ABF4D11964F
S1130570DC906081569F800D911D1124FC01E95A85
S1130580FF4DC080F9018081E81648F490E08E198F
S11305909109642F70E00E940C04698301C01982E0
S11305A0F9018181D81648F490E08D199109642FDE
S11305B070E00E940C046A8301C01A82F9018281EE
S11305C0C81648F490E08C199109642F70E00E94D9
S11305D00C046B8301C01B824423D1F0042F11E06F
S11305E099813A812B81FC2D219FF00D11242F2F0D
S11305F04D2D319F400D11246E2D919F600D1124BE
S11306008F2D0E944E020E9416021F5F011740F7B1
S1130610E091B72FF091B82FB0822396CDBFDEBF03
S1130620DF91CF911F910F91FF90EF90DF90CF90CA
S1130630BF9008952F923F924F925F926F927F9254
S11306408F929F92AF92BF92CF92DF92EF92FF92DE
S11306500F931F93CF93DF93CDB7DEB72797CDBF0B
S1130660DEBF4C01362F822F602F0E9400048111BF
S113067043C05AC0E12C0E947F04B5010E940C04BF
S1130680F401E80FF11D70800E947F04B8010E94FC
S11306900C048C838C81F81608F441C00E947F04FA
S11306A0B8010E940C048C838C81F816B8F737C00B
S11306B081919C81899FC0011124B8010E940C047E
S11306C0D601A20FB31F6C932F5F3F4F2330310528
S11306D079F7462D622D7D81872D0E948A02E3944D
S11306E05E10C9CF862D0E940E028E818F5F8E838D
S11306F09F81981311C018C08F83FC2C5E2C602E30
S1130700352E442E1E82A32EB12C0FEF10E0CE0105
S113071001966C01282EDD825110ACCFE3CFE42D7D
S1130720F32D20E030E0C4CF2796CDBFDEBFDF91AC
S1130730CF911F910F91FF90EF90DF90CF90BF90DA
S1130740AF909F908F907F906F905F904F903F906D
S11307502F900895E0ECF1E08485886084878EE32F
S113076090E00E94830486E590E28093B72F9093F3
S1130770B82F08950E94AA030E941F010E94C1037A
S1130780FDCFCF92EF920F931F93CF93DF93CDB70B
S1130790DEB72697CDBFDEBF89E389838FEF8A83D7
S11307A084E18B831C8296E49D838E8315E0CE01C5
S11307B004960E943E020F2EF0E3CF2EF02D0F2E52
S11307C0FEE1EF2EF02D02E020E1AE014F5F5F4F1E
S11307D062E584E090E20E941A03E091B72FF09161
S11307E0B82F10820E94F201115009F72696CDBF4E
S11307F0DEBFDF91CF911F910F91EF90CF900895BD
S1130800991B79E004C0991F961708F0961B881F5E
S11308107A95C9F78095089597FB072E16F40094EE
S113082007D077FD09D00E94200407FC05D03EF4D0
S1130830909581959F4F0895709561957F4F089588
S1130840AA1BBB1B51E107C0AA1FBB1FA617B707F2
S113085010F0A61BB70B881F991F5A95A9F780950E
S11308609095BC01CD0108958F929F92AF92BF9253
S1130870CF92DF92EF92FF92CF93DF93EC016881E6
S113088079818A819B81611571058105910521F426
S113089064E279ED8BE597E02DE133EF41E050E040
S11308A00E948E0449015A019B01AC01A7EAB1E4FC
S11308B00E94AD046B017C01ACEEB4EFA501940180
S11308C00E94BB04DC01CB018C0D9D1DAE1DBF1D20
S11308D0B7FF03C00197A109B04888839983AA830D
S11308E0BB839F77DF91CF91FF90EF90DF90CF9004
S11308F0BF90AF909F908F9008950C94340480E043
S113090090E20C943404A0E0B0E080930020909333
S11309100120A0930220B09303200895052E97FB95
S11309201EF400940E94A50457FD07D00E94C00441
S113093007FC03D04EF40C94A504509540953095D3
S113094021953F4F4F4F5F4F089590958095709537
S113095061957F4F8F4F9F4F08950E94E204A59F9A
S1130960900DB49F900DA49F800D911D11240895A6
S1130970B7FF0C94AD040E94AD04821B930B089541
S1130980A1E21A2EAA1BBB1BFD010DC0AA1FBB1F8F
S1130990EE1FFF1FA217B307E407F50720F0A21B01
S11309A0B30BE40BF50B661F771F881F991F1A946E
S11309B069F760957095809590959B01AC01BD0198
S11309C0CF010895A29FB001B39FC001A39F700DF2
S11309D0811D1124911DB29F700D811D1124911D43
S10909E00895F894FFCF16
S11309E601000000000102030405060708090A0BBA
S11309F60C0D0E0F101112131415161718191A1BB5
S1130A061C1D1E1F202122232425262728292A2BA4
S1130A162C2D2E2F303132333435363738393A3B94
S1130A263C3D3E3F404142434445464748494A4B84
S1090A364C4D4E4F5051DF
S9030000FC
