S01A00004D696B726F6C797372656B6C616D656E31372E73726563F9
S11300000C94FE000C9408010C9408010C94080153
S11300100C9408010C9408010C9408010C94080138
S11300200C9408010C9408010C9408010C94080128
S11300300C9408010C9408010C9408010C94080118
S11300400C9408010C9408010C9408010C94080108
S11300500C9408010C9408010C9408010C940801F8
S11300600C9408010C9408010C9408010C940801E8
S11300700C9408010C9408010C9408010C940801D8
S11300800C9408010C9408010C9408010C940801C8
S11300900C9408010C9408010C9408010C940801B8
S11300A00C9408010C9408010C9408010C940801A8
S11300B00C9408010C9408010C9408010C94080198
S11300C00C9408010C9408010C9408010C94080188
S11300D00C9408010C9408010C9408010C94080178
S11300E00C9408010C9408010C9408010C94080168
S11300F00C9408010C9408010C9408010C94080158
S11301000C9408010C9408010C9408010C94080147
S11301100C9408010C9408010C9408010C94080137
S11301200C9408010C9408010C9408010C94080127
S11301300C9408010C9408010C9408010C94080117
S11301400C9408010C9408010C9408010C94080107
S11301500C9408010C9408010C9408010C940801F7
S11301600C9408010C9408010C9408010C940801E7
S11301700C9408010C9408010C9408010C940801D7
S11301800C9408010C9408010C9408010C940801C7
S11301900C9408010C9408010C9408010C940801B7
S11301A00C9408010C9408010C9408010C940801A7
S11301B00C9408010C9408010C9408010C94080197
S11301C00C9408010C9408010C9408010C94080187
S11301D00C9408010C9408010C9408010C94080177
S11301E00C9408010C9408010C9408010C94080167
S11301F00C9408010C9408010C94080111241FBEEE
S1130200CFEFCDBFDFE2DEBF0E94E2010C945F02BC
S11302100C940000E0E6F6E080EA808314820895FE
S1130220982F991F9927991F9295990F907EE0E630
S1130230F6E0948394819068948394819F77948367
S113024086FB992790F99295990F907E94839481D7
S11302509068948394819F779483982F9072948369
S113026094819068948394819F77948384FB9927E5
S113027090F99295990F907E9483948190689483D9
S113028094819F77948383FB992790F99295990F92
S1130290907E948394819068948394819F779483CF
S11302A082FB992790F99295990F907E948394817B
S11302B09068948394819F77948381FB992790F924
S11302C09295990F907E94839481906894839481FD
S11302D09F77948381708295880F807E8483848144
S11302E08068848384818F778483089580E00E946A
S11302F0100180E00E94100180E00E94100180E063
S11303000E94100108950F931F93CF9390E00E96CF
S11303108C0112F4015F1F4F1595079515950795EC
S113032015950795159507951016110654F4C0E018
S113033080E00E941001CF5F8C2F90E0801791071E
S1130340BCF3CF911F910F910895FF920F931F93C8
S1130350CF93DF938C01F62E0E947601E8010A50B8
S11303601F4F8F2D806EF82E8F2D0E9410018881D3
S11303700E94100189810E9410018A810E9410014B
S11303802396C017D10781F782E50E948301DF918C
S1130390CF911F910F91FF900895E0ECF1E08485D7
S11303A0886084870895FC018A509F4F608361832D
S11303B0628333968E179F07C9F7089560E00E9401
S11303C0D3010895CF93DF93CDB7DEB7C65FD109CC
S11303D0CDBFDEBF0E94CD010E940A01CE0101966D
S11303E00E94DE0161E0CE0101960E94A5010F2E5C
S11303F0FCEECF2EF02D0F2EF3E0EF2EF12CF02D8E
S11304008E010F5F1F4FA02EB12E0F2EF4E1DF2EB1
S1130410F02DDC0C2FE38DE093E0215080409040E0
S1130420E1F700C000004D2D20E030E0C901B70124
S11304300E943702FB01EE0FFF1F6E0F7F1F600F3C
S1130440711FFB01E80FF91F40832F5F3F4F4E5F81
S11304502235310559F761E08A2D9B2D0E94A501B3
S113046024EAD20EDC10D6CF8CEEC80ECECF97FB8A
S1130470072E16F4009407D077FD09D00E944B0292
S113048007FC05D03EF4909581959F4F0895709593
S113049061957F4F0895AA1BBB1B51E107C0AA1F9A
S11304A0BB1FA617B70710F0A61BB70B881F991F11
S11304B05A95A9F780959095BC01CD010895F894BB
S10504C0FFCF68
S9030000FC
