:100000000C94FE000C9408010C9408010C94080157
:100010000C9408010C9408010C9408010C9408013C
:100020000C9408010C9408010C9408010C9408012C
:100030000C9408010C9408010C9408010C9408011C
:100040000C9408010C9408010C9408010C9408010C
:100050000C9408010C9408010C9408010C940801FC
:100060000C9408010C9408010C9408010C940801EC
:100070000C9408010C9408010C9408010C940801DC
:100080000C9408010C9408010C9408010C940801CC
:100090000C9408010C9408010C9408010C940801BC
:1000A0000C9408010C9408010C9408010C940801AC
:1000B0000C9408010C9408010C9408010C9408019C
:1000C0000C9408010C9408010C9408010C9408018C
:1000D0000C9408010C9408010C9408010C9408017C
:1000E0000C9408010C9408010C9408010C9408016C
:1000F0000C9408010C9408010C9408010C9408015C
:100100000C9408010C9408010C9408010C9408014B
:100110000C9408010C9408010C9408010C9408013B
:100120000C9408010C9408010C9408010C9408012B
:100130000C9408010C9408010C9408010C9408011B
:100140000C9408010C9408010C9408010C9408010B
:100150000C9408010C9408010C9408010C940801FB
:100160000C9408010C9408010C9408010C940801EB
:100170000C9408010C9408010C9408010C940801DB
:100180000C9408010C9408010C9408010C940801CB
:100190000C9408010C9408010C9408010C940801BB
:1001A0000C9408010C9408010C9408010C940801AB
:1001B0000C9408010C9408010C9408010C9408019B
:1001C0000C9408010C9408010C9408010C9408018B
:1001D0000C9408010C9408010C9408010C9408017B
:1001E0000C9408010C9408010C9408010C9408016B
:1001F0000C9408010C9408010C94080111241FBEF2
:10020000CFEFCDBFDFE2DEBF0E94CD010C94F20143
:100210000C940000E0E6F6E080EA80831482089502
:10022000982F991F9927991F9295990F907EE0E634
:10023000F6E0948394819068948394819F7794836B
:1002400086FB992790F99295990F907E94839481DB
:100250009068948394819F779483982F907294836D
:1002600094819068948394819F77948384FB9927E9
:1002700090F99295990F907E9483948190689483DD
:1002800094819F77948383FB992790F99295990F96
:10029000907E948394819068948394819F779483D3
:1002A00082FB992790F99295990F907E948394817F
:1002B0009068948394819F77948381FB992790F928
:1002C0009295990F907E9483948190689483948101
:1002D0009F77948381708295880F807E8483848148
:1002E0008068848384818F778483089580E00E946E
:1002F000100180E00E94100180E00E94100180E067
:100300000E94100108950F931F93CF9390E00E96D3
:100310008C0112F4015F1F4F1595079515950795F0
:1003200015950795159507951016110654F4C0E01C
:1003300080E00E941001CF5F8C2F90E08017910722
:10034000BCF3CF911F910F910895FF920F931F93CC
:10035000CF93DF938C01F62E0E947601E8010A50BC
:100360001F4F8F2D806EF82E8F2D0E9410018881D7
:100370000E94100189810E9410018A810E9410014F
:100380002396C017D10781F782E50E948301DF9190
:10039000CF911F910F91FF900895CF93DF93CDB729
:1003A000DEB7C65FD109CDBFDEBF0E940A01FE01E4
:1003B0003196CE0189509F4F10821182128233965E
:1003C0008E179F07C9F761E0CE0101960E94A50133
:1003D00080EF8B838D83898761E0CE0101960E9437
:0803E000A501FACFF894FFCF4C
:00000001FF
